{
  "contractName": "Poll",
  "abi": [
    {
      "constant": true,
      "inputs": [
        {
          "name": "",
          "type": "uint8"
        }
      ],
      "name": "questions",
      "outputs": [
        {
          "name": "questionText",
          "type": "string"
        },
        {
          "name": "id",
          "type": "uint8"
        },
        {
          "name": "answerIdCounter",
          "type": "uint8"
        },
        {
          "name": "creationTime",
          "type": "uint256"
        },
        {
          "name": "endTime",
          "type": "uint256"
        },
        {
          "name": "creatorsName",
          "type": "string"
        },
        {
          "name": "creatorsOrganisation",
          "type": "string"
        }
      ],
      "payable": false,
      "stateMutability": "view",
      "type": "function"
    },
    {
      "constant": true,
      "inputs": [],
      "name": "verifierInterface",
      "outputs": [
        {
          "name": "",
          "type": "address"
        }
      ],
      "payable": false,
      "stateMutability": "view",
      "type": "function"
    },
    {
      "constant": true,
      "inputs": [],
      "name": "questionIdCounter",
      "outputs": [
        {
          "name": "",
          "type": "uint8"
        }
      ],
      "payable": false,
      "stateMutability": "view",
      "type": "function"
    },
    {
      "constant": true,
      "inputs": [],
      "name": "owner",
      "outputs": [
        {
          "name": "",
          "type": "address"
        }
      ],
      "payable": false,
      "stateMutability": "view",
      "type": "function"
    },
    {
      "constant": false,
      "inputs": [
        {
          "name": "newOwner",
          "type": "address"
        }
      ],
      "name": "transferOwnership",
      "outputs": [],
      "payable": false,
      "stateMutability": "nonpayable",
      "type": "function"
    },
    {
      "inputs": [
        {
          "name": "_verifierInterfaceAddress",
          "type": "address"
        }
      ],
      "payable": false,
      "stateMutability": "nonpayable",
      "type": "constructor"
    },
    {
      "anonymous": false,
      "inputs": [
        {
          "indexed": true,
          "name": "previousOwner",
          "type": "address"
        },
        {
          "indexed": true,
          "name": "newOwner",
          "type": "address"
        }
      ],
      "name": "OwnershipTransferred",
      "type": "event"
    },
    {
      "constant": false,
      "inputs": [
        {
          "name": "_address",
          "type": "address"
        }
      ],
      "name": "setPoapToken",
      "outputs": [],
      "payable": false,
      "stateMutability": "nonpayable",
      "type": "function"
    },
    {
      "constant": true,
      "inputs": [],
      "name": "getPoapTokenAddress",
      "outputs": [
        {
          "name": "",
          "type": "address"
        }
      ],
      "payable": false,
      "stateMutability": "view",
      "type": "function"
    },
    {
      "constant": true,
      "inputs": [
        {
          "name": "_user",
          "type": "address"
        }
      ],
      "name": "verifyUserOwnsAtLeastOnePoapToken",
      "outputs": [],
      "payable": false,
      "stateMutability": "view",
      "type": "function"
    },
    {
      "constant": false,
      "inputs": [
        {
          "name": "_questionText",
          "type": "string"
        },
        {
          "name": "duration",
          "type": "uint256"
        },
        {
          "name": "_creatorsName",
          "type": "string"
        },
        {
          "name": "_creatorsOrganisation",
          "type": "string"
        }
      ],
      "name": "addQuestion",
      "outputs": [
        {
          "name": "",
          "type": "uint8"
        }
      ],
      "payable": false,
      "stateMutability": "nonpayable",
      "type": "function"
    },
    {
      "constant": false,
      "inputs": [
        {
          "name": "_questionId",
          "type": "uint8"
        },
        {
          "name": "_answerText",
          "type": "string"
        }
      ],
      "name": "addAnswer",
      "outputs": [
        {
          "name": "",
          "type": "uint8"
        }
      ],
      "payable": false,
      "stateMutability": "nonpayable",
      "type": "function"
    },
    {
      "constant": true,
      "inputs": [
        {
          "name": "_questionId",
          "type": "uint8"
        }
      ],
      "name": "getQuestion",
      "outputs": [
        {
          "name": "",
          "type": "string"
        }
      ],
      "payable": false,
      "stateMutability": "view",
      "type": "function"
    },
    {
      "constant": true,
      "inputs": [
        {
          "name": "_questionId",
          "type": "uint8"
        }
      ],
      "name": "getQuestionEndTime",
      "outputs": [
        {
          "name": "",
          "type": "uint256"
        }
      ],
      "payable": false,
      "stateMutability": "view",
      "type": "function"
    },
    {
      "constant": true,
      "inputs": [
        {
          "name": "_questionId",
          "type": "uint8"
        }
      ],
      "name": "getQuestionStartTime",
      "outputs": [
        {
          "name": "",
          "type": "uint256"
        }
      ],
      "payable": false,
      "stateMutability": "view",
      "type": "function"
    },
    {
      "constant": true,
      "inputs": [
        {
          "name": "_questionId",
          "type": "uint8"
        },
        {
          "name": "_answerId",
          "type": "uint8"
        }
      ],
      "name": "getAnswer",
      "outputs": [
        {
          "name": "",
          "type": "string"
        }
      ],
      "payable": false,
      "stateMutability": "view",
      "type": "function"
    },
    {
      "constant": true,
      "inputs": [],
      "name": "getNumQuestions",
      "outputs": [
        {
          "name": "",
          "type": "uint8"
        }
      ],
      "payable": false,
      "stateMutability": "view",
      "type": "function"
    },
    {
      "constant": true,
      "inputs": [
        {
          "name": "_questionId",
          "type": "uint8"
        }
      ],
      "name": "getNumAnswers",
      "outputs": [
        {
          "name": "",
          "type": "uint8"
        }
      ],
      "payable": false,
      "stateMutability": "view",
      "type": "function"
    },
    {
      "constant": true,
      "inputs": [
        {
          "name": "_questionId",
          "type": "uint8"
        }
      ],
      "name": "getCreatorsNameForQuestion",
      "outputs": [
        {
          "name": "",
          "type": "string"
        }
      ],
      "payable": false,
      "stateMutability": "view",
      "type": "function"
    },
    {
      "constant": true,
      "inputs": [
        {
          "name": "_questionId",
          "type": "uint8"
        }
      ],
      "name": "getCreatorsOrganisationForQuestion",
      "outputs": [
        {
          "name": "",
          "type": "string"
        }
      ],
      "payable": false,
      "stateMutability": "view",
      "type": "function"
    }
  ],
  "bytecode": "0x608060405234801561001057600080fd5b50604051602080611f868339810180604052602081101561003057600080fd5b8101908080519060200190929190505050336000806101000a81548173ffffffffffffffffffffffffffffffffffffffff021916908373ffffffffffffffffffffffffffffffffffffffff16021790555080600160006101000a81548173ffffffffffffffffffffffffffffffffffffffff021916908373ffffffffffffffffffffffffffffffffffffffff1602179055506000600160146101000a81548160ff021916908360ff16021790555050611e98806100ee6000396000f3fe608060405234801561001057600080fd5b50600436106101165760003560e01c80637da07e61116100a2578063a0883f1911610071578063a0883f191461078b578063ba819e7b146108d2578063bc8a17ed14610916578063e91938331461093a578063f2fde38b146109e457610116565b80637da07e61146106085780638da5cb5b146106b257806391d9fca5146106fc57806396f023641461074657610116565b80632b5f0c94116100e95780632b5f0c941461040a5780632c35fcb4146104aa5780634838ab42146104f55780634f7ccda41461059f57806361e78617146105e457610116565b8063020f85071461011b57806308d67a4e146102c55780631093a2981461030f578063156f11cf14610353575b600080fd5b61014a6004803603602081101561013157600080fd5b81019080803560ff169060200190929190505050610a28565b60405180806020018860ff1660ff1681526020018760ff1660ff168152602001868152602001858152602001806020018060200184810384528b818151815260200191508051906020019080838360005b838110156101b657808201518184015260208101905061019b565b50505050905090810190601f1680156101e35780820380516001836020036101000a031916815260200191505b50848103835286818151815260200191508051906020019080838360005b8381101561021c578082015181840152602081019050610201565b50505050905090810190601f1680156102495780820380516001836020036101000a031916815260200191505b50848103825285818151815260200191508051906020019080838360005b83811015610282578082015181840152602081019050610267565b50505050905090810190601f1680156102af5780820380516001836020036101000a031916815260200191505b509a505050505050505050505060405180910390f35b6102cd610c4c565b604051808273ffffffffffffffffffffffffffffffffffffffff1673ffffffffffffffffffffffffffffffffffffffff16815260200191505060405180910390f35b6103516004803603602081101561032557600080fd5b81019080803573ffffffffffffffffffffffffffffffffffffffff169060200190929190505050610c72565b005b61038f6004803603604081101561036957600080fd5b81019080803560ff169060200190929190803560ff169060200190929190505050610d2c565b6040518080602001828103825283818151815260200191508051906020019080838360005b838110156103cf5780820151818401526020810190506103b4565b50505050905090810190601f1680156103fc5780820380516001836020036101000a031916815260200191505b509250505060405180910390f35b61048e6004803603604081101561042057600080fd5b81019080803560ff1690602001909291908035906020019064010000000081111561044a57600080fd5b82018360208201111561045c57600080fd5b8035906020019184600183028401116401000000008311171561047e57600080fd5b9091929391929390505050610e85565b604051808260ff1660ff16815260200191505060405180910390f35b6104d9600480360360208110156104c057600080fd5b81019080803560ff169060200190929190505050611087565b604051808260ff1660ff16815260200191505060405180910390f35b6105246004803603602081101561050b57600080fd5b81019080803560ff169060200190929190505050611137565b6040518080602001828103825283818151815260200191508051906020019080838360005b83811015610564578082015181840152602081019050610549565b50505050905090810190601f1680156105915780820380516001836020036101000a031916815260200191505b509250505060405180910390f35b6105ce600480360360208110156105b557600080fd5b81019080803560ff169060200190929190505050611272565b6040518082815260200191505060405180910390f35b6105ec611315565b604051808260ff1660ff16815260200191505060405180910390f35b6106376004803603602081101561061e57600080fd5b81019080803560ff169060200190929190505050611328565b6040518080602001828103825283818151815260200191508051906020019080838360005b8381101561067757808201518184015260208101905061065c565b50505050905090810190601f1680156106a45780820380516001836020036101000a031916815260200191505b509250505060405180910390f35b6106ba611463565b604051808273ffffffffffffffffffffffffffffffffffffffff1673ffffffffffffffffffffffffffffffffffffffff16815260200191505060405180910390f35b610704611488565b604051808273ffffffffffffffffffffffffffffffffffffffff1673ffffffffffffffffffffffffffffffffffffffff16815260200191505060405180910390f35b6107756004803603602081101561075c57600080fd5b81019080803560ff169060200190929190505050611532565b6040518082815260200191505060405180910390f35b6108b6600480360360808110156107a157600080fd5b81019080803590602001906401000000008111156107be57600080fd5b8201836020820111156107d057600080fd5b803590602001918460018302840111640100000000831117156107f257600080fd5b9091929391929390803590602001909291908035906020019064010000000081111561081d57600080fd5b82018360208201111561082f57600080fd5b8035906020019184600183028401116401000000008311171561085157600080fd5b90919293919293908035906020019064010000000081111561087257600080fd5b82018360208201111561088457600080fd5b803590602001918460018302840111640100000000831117156108a657600080fd5b90919293919293905050506115d5565b604051808260ff1660ff16815260200191505060405180910390f35b610914600480360360208110156108e857600080fd5b81019080803573ffffffffffffffffffffffffffffffffffffffff16906020019092919050505061182e565b005b61091e6118ea565b604051808260ff1660ff16815260200191505060405180910390f35b6109696004803603602081101561095057600080fd5b81019080803560ff169060200190929190505050611901565b6040518080602001828103825283818151815260200191508051906020019080838360005b838110156109a957808201518184015260208101905061098e565b50505050905090810190601f1680156109d65780820380516001836020036101000a031916815260200191505b509250505060405180910390f35b610a26600480360360208110156109fa57600080fd5b81019080803573ffffffffffffffffffffffffffffffffffffffff169060200190929190505050611a3c565b005b6002602052806000526040600020600091509050806000018054600181600116156101000203166002900480601f016020809104026020016040519081016040528092919081815260200182805460018160011615610100020316600290048015610ad45780601f10610aa957610100808354040283529160200191610ad4565b820191906000526020600020905b815481529060010190602001808311610ab757829003601f168201915b5050505050908060010160009054906101000a900460ff16908060010160019054906101000a900460ff1690806003015490806004015490806005018054600181600116156101000203166002900480601f016020809104026020016040519081016040528092919081815260200182805460018160011615610100020316600290048015610ba45780601f10610b7957610100808354040283529160200191610ba4565b820191906000526020600020905b815481529060010190602001808311610b8757829003601f168201915b505050505090806006018054600181600116156101000203166002900480601f016020809104026020016040519081016040528092919081815260200182805460018160011615610100020316600290048015610c425780601f10610c1757610100808354040283529160200191610c42565b820191906000526020600020905b815481529060010190602001808311610c2557829003601f168201915b5050505050905087565b600160009054906101000a900473ffffffffffffffffffffffffffffffffffffffff1681565b600160009054906101000a900473ffffffffffffffffffffffffffffffffffffffff1673ffffffffffffffffffffffffffffffffffffffff16631093a298826040518263ffffffff1660e01b8152600401808273ffffffffffffffffffffffffffffffffffffffff1673ffffffffffffffffffffffffffffffffffffffff16815260200191505060006040518083038186803b158015610d1157600080fd5b505afa158015610d25573d6000803e3d6000fd5b5050505050565b60608282610d3a8282611c42565b610dac576040517f08c379a00000000000000000000000000000000000000000000000000000000081526004018080602001828103825260118152602001807f496e76616c696420616e7377657220494400000000000000000000000000000081525060200191505060405180910390fd5b600260008660ff1660ff16815260200190815260200160002060020160008560ff1660ff1681526020019081526020016000206000018054600181600116156101000203166002900480601f016020809104026020016040519081016040528092919081815260200182805460018160011615610100020316600290048015610e765780601f10610e4b57610100808354040283529160200191610e76565b820191906000526020600020905b815481529060010190602001808311610e5957829003601f168201915b50505050509250505092915050565b600083610e9181611d0b565b610f03576040517f08c379a00000000000000000000000000000000000000000000000000000000081526004018080602001828103825260138152602001807f496e76616c6964207175657374696f6e2049440000000000000000000000000081525060200191505060405180910390fd5b6000600260008760ff1660ff16815260200190815260200160002060010160019054906101000a900460ff169050610f39611d3b565b85858080601f016020809104026020016040519081016040528093929190818152602001838380828437600081840152601f19601f82011690508083019250505050505050816000018190525081816020019060ff16908160ff168152505080600260008960ff1660ff16815260200190815260200160002060020160008460ff1660ff1681526020019081526020016000206000820151816000019080519060200190610fe8929190611d62565b5060208201518160010160006101000a81548160ff021916908360ff16021790555060408201518160010160016101000a81548160ff021916908360ff160217905550905050600260008860ff1660ff168152602001908152602001600020600101600181819054906101000a900460ff168092919060010191906101000a81548160ff021916908360ff160217905550508193505050509392505050565b60008161109381611d0b565b611105576040517f08c379a00000000000000000000000000000000000000000000000000000000081526004018080602001828103825260138152602001807f496e76616c6964207175657374696f6e2049440000000000000000000000000081525060200191505060405180910390fd5b600260008460ff1660ff16815260200190815260200160002060010160019054906101000a900460ff16915050919050565b60608161114381611d0b565b6111b5576040517f08c379a00000000000000000000000000000000000000000000000000000000081526004018080602001828103825260138152602001807f496e76616c6964207175657374696f6e2049440000000000000000000000000081525060200191505060405180910390fd5b600260008460ff1660ff1681526020019081526020016000206006018054600181600116156101000203166002900480601f0160208091040260200160405190810160405280929190818152602001828054600181600116156101000203166002900480156112655780601f1061123a57610100808354040283529160200191611265565b820191906000526020600020905b81548152906001019060200180831161124857829003601f168201915b5050505050915050919050565b60008161127e81611d0b565b6112f0576040517f08c379a00000000000000000000000000000000000000000000000000000000081526004018080602001828103825260138152602001807f496e76616c6964207175657374696f6e2049440000000000000000000000000081525060200191505060405180910390fd5b600260008460ff1660ff16815260200190815260200160002060030154915050919050565b600160149054906101000a900460ff1681565b60608161133481611d0b565b6113a6576040517f08c379a00000000000000000000000000000000000000000000000000000000081526004018080602001828103825260138152602001807f496e76616c6964207175657374696f6e2049440000000000000000000000000081525060200191505060405180910390fd5b600260008460ff1660ff1681526020019081526020016000206000018054600181600116156101000203166002900480601f0160208091040260200160405190810160405280929190818152602001828054600181600116156101000203166002900480156114565780601f1061142b57610100808354040283529160200191611456565b820191906000526020600020905b81548152906001019060200180831161143957829003601f168201915b5050505050915050919050565b6000809054906101000a900473ffffffffffffffffffffffffffffffffffffffff1681565b6000600160009054906101000a900473ffffffffffffffffffffffffffffffffffffffff1673ffffffffffffffffffffffffffffffffffffffff166310fe9ae86040518163ffffffff1660e01b815260040160206040518083038186803b1580156114f257600080fd5b505afa158015611506573d6000803e3d6000fd5b505050506040513d602081101561151c57600080fd5b8101908080519060200190929190505050905090565b60008161153e81611d0b565b6115b0576040517f08c379a00000000000000000000000000000000000000000000000000000000081526004018080602001828103825260138152602001807f496e76616c6964207175657374696f6e2049440000000000000000000000000081525060200191505060405180910390fd5b600260008460ff1660ff16815260200190815260200160002060040154915050919050565b60006115df611de2565b88888080601f016020809104026020016040519081016040528093929190818152602001838380828437600081840152601f19601f820116905080830192505050505050508160000181905250600160149054906101000a900460ff16816020019060ff16908160ff16815250506000816040019060ff16908160ff16815250504281606001818152505086420181608001818152505085858080601f016020809104026020016040519081016040528093929190818152602001838380828437600081840152601f19601f820116905080830192505050505050508160a0018190525083838080601f016020809104026020016040519081016040528093929190818152602001838380828437600081840152601f19601f820116905080830192505050505050508160c001819052508060026000600160149054906101000a900460ff1660ff1660ff1681526020019081526020016000206000820151816000019080519060200190611755929190611d62565b5060208201518160010160006101000a81548160ff021916908360ff16021790555060408201518160010160016101000a81548160ff021916908360ff160217905550606082015181600301556080820151816004015560a08201518160050190805190602001906117c8929190611d62565b5060c08201518160060190805190602001906117e5929190611d62565b509050506001601481819054906101000a900460ff168092919060010191906101000a81548160ff021916908360ff160217905550508060200151915050979650505050505050565b600160009054906101000a900473ffffffffffffffffffffffffffffffffffffffff1673ffffffffffffffffffffffffffffffffffffffff1663ba819e7b826040518263ffffffff1660e01b8152600401808273ffffffffffffffffffffffffffffffffffffffff1673ffffffffffffffffffffffffffffffffffffffff168152602001915050600060405180830381600087803b1580156118cf57600080fd5b505af11580156118e3573d6000803e3d6000fd5b5050505050565b6000600160149054906101000a900460ff16905090565b60608161190d81611d0b565b61197f576040517f08c379a00000000000000000000000000000000000000000000000000000000081526004018080602001828103825260138152602001807f496e76616c6964207175657374696f6e2049440000000000000000000000000081525060200191505060405180910390fd5b600260008460ff1660ff1681526020019081526020016000206005018054600181600116156101000203166002900480601f016020809104026020016040519081016040528092919081815260200182805460018160011615610100020316600290048015611a2f5780601f10611a0457610100808354040283529160200191611a2f565b820191906000526020600020905b815481529060010190602001808311611a1257829003601f168201915b5050505050915050919050565b6000809054906101000a900473ffffffffffffffffffffffffffffffffffffffff1673ffffffffffffffffffffffffffffffffffffffff163373ffffffffffffffffffffffffffffffffffffffff1614611afe576040517f08c379a00000000000000000000000000000000000000000000000000000000081526004018080602001828103825260098152602001807f4e6f74206f776e6572000000000000000000000000000000000000000000000081525060200191505060405180910390fd5b600073ffffffffffffffffffffffffffffffffffffffff168173ffffffffffffffffffffffffffffffffffffffff161415611b84576040517f08c379a0000000000000000000000000000000000000000000000000000000008152600401808060200182810382526022815260200180611e4b6022913960400191505060405180910390fd5b8073ffffffffffffffffffffffffffffffffffffffff166000809054906101000a900473ffffffffffffffffffffffffffffffffffffffff1673ffffffffffffffffffffffffffffffffffffffff167f8be0079c531659141344cd1fd0a4f28419497f9722a3daafe3b4186f6b6457e060405160405180910390a3806000806101000a81548173ffffffffffffffffffffffffffffffffffffffff021916908373ffffffffffffffffffffffffffffffffffffffff16021790555050565b600082611c4e81611d0b565b611cc0576040517f08c379a00000000000000000000000000000000000000000000000000000000081526004018080602001828103825260138152602001807f496e76616c6964207175657374696f6e2049440000000000000000000000000081525060200191505060405180910390fd5b60008360ff1610158015611d025750600260008560ff1660ff16815260200190815260200160002060010160019054906101000a900460ff1660ff168460ff16105b91505092915050565b6000808260ff1610158015611d345750600160149054906101000a900460ff1660ff168260ff16105b9050919050565b604051806060016040528060608152602001600060ff168152602001600060ff1681525090565b828054600181600116156101000203166002900490600052602060002090601f016020900481019282601f10611da357805160ff1916838001178555611dd1565b82800160010185558215611dd1579182015b82811115611dd0578251825591602001919060010190611db5565b5b509050611dde9190611e25565b5090565b6040518060e0016040528060608152602001600060ff168152602001600060ff168152602001600081526020016000815260200160608152602001606081525090565b611e4791905b80821115611e43576000816000905550600101611e2b565b5090565b9056fe43616e2774207472616e7366657220746f20746865207a65726f2061646472657373a165627a7a723058206a85ee6385903d4eedbbcce7ddff0c86339b7032742c17e6fe203bfd030315580029",
  "source": "pragma solidity ^0.5.0;\n\nimport \"./Ownable.sol\";\n\ncontract VerifierInterface is Ownable {\n    function setPoapToken(address _address) public;\n    function verifyUserOwnsAtLeastOnePoapToken(address _user) public view;\n    function getTokenAddress() public view returns (address);\n}\n\ncontract Poll is Ownable {\n\n    VerifierInterface public verifierInterface;\n    uint8 public questionIdCounter;\n    mapping (uint8 => Question) public questions;\n\n    struct Question {\n        string questionText;\n        uint8 id;\n        uint8 answerIdCounter;\n        mapping (uint8 => Answer) possibleAnswers;\n        uint256 creationTime;\n        uint256 endTime;\n\n        string creatorsName;\n        string creatorsOrganisation;\n    }\n\n    struct Answer {\n        string answerText;\n        uint8 id;\n        uint8 poll;\n    }\n\n    constructor (address _verifierInterfaceAddress) public {\n        verifierInterface = VerifierInterface(_verifierInterfaceAddress);\n        questionIdCounter = 0;\n    }\n\n    function isValidQuestionId(uint8 _questionId) internal view returns (bool) {\n        return _questionId >= 0 && _questionId < questionIdCounter;\n    }\n\n    modifier onlyValidQuestionIds(uint8 _questionId) {\n        require(isValidQuestionId(_questionId), \"Invalid question ID\");\n        _;\n    }\n\n    function isValidAnswerId(uint8 _questionId, uint8 _answerId) internal onlyValidQuestionIds(_questionId) view returns (bool) {\n       return _answerId >= 0 && _questionId < questions[_questionId].answerIdCounter;\n    }\n\n    modifier onlyValidAnswerIds(uint8 _questionId, uint8 _answerId) {\n        require(isValidAnswerId(_questionId, _answerId), \"Invalid answer ID\");\n        _;\n    }\n\n    function setPoapToken(address _address) public /*onlyOwner*/ {\n        verifierInterface.setPoapToken(_address);\n    }\n\n    function getPoapTokenAddress() public view returns (address) {\n        return verifierInterface.getTokenAddress();\n    }\n\n    function verifyUserOwnsAtLeastOnePoapToken(address _user) public view {\n        verifierInterface.verifyUserOwnsAtLeastOnePoapToken(_user);\n    }\n\n    function addQuestion(string calldata _questionText, uint duration, string calldata _creatorsName, string calldata _creatorsOrganisation)\n            external /*onlyOwner*/ returns (uint8) {\n        Question memory q;\n        q.questionText = _questionText;\n        q.id = questionIdCounter;\n        q.answerIdCounter = 0;\n        q.creationTime = now;\n        q.endTime = now + duration; // TODO: use safe maths\n        q.creatorsName = _creatorsName;\n        q.creatorsOrganisation = _creatorsOrganisation;\n        questions[questionIdCounter] = q;\n\n        questionIdCounter++;\n        return q.id;\n    }\n\n    function addAnswer(uint8 _questionId, string calldata _answerText) external onlyValidQuestionIds(_questionId) /*OnlyOwner*/ returns (uint8) {\n        uint8 answerId = questions[_questionId].answerIdCounter;\n\n        Answer memory a;\n        a.answerText = _answerText;\n        a.id = answerId;\n        questions[_questionId].possibleAnswers[answerId] = a;\n\n        questions[_questionId].answerIdCounter++;\n        return answerId;\n    }\n\n    function getQuestion(uint8 _questionId) public onlyValidQuestionIds(_questionId) view returns (string memory) {\n        return questions[_questionId].questionText;\n    }\n\n    function getQuestionEndTime(uint8 _questionId) public onlyValidQuestionIds(_questionId) view returns (uint256) {\n        return questions[_questionId].endTime;\n    }\n\n    function getQuestionStartTime(uint8 _questionId) public onlyValidQuestionIds(_questionId) view returns (uint256) {\n        return questions[_questionId].creationTime;\n    }\n\n    function getAnswer(uint8 _questionId, uint8 _answerId) public onlyValidAnswerIds(_questionId, _answerId) view returns (string memory) {\n        return questions[_questionId].possibleAnswers[_answerId].answerText;\n    }\n\n    function getNumQuestions() public view returns (uint8) {\n        return questionIdCounter;\n    }\n\n    function getNumAnswers(uint8 _questionId) public onlyValidQuestionIds(_questionId) view returns (uint8) {\n        return questions[_questionId].answerIdCounter;\n    }\n\n    function getCreatorsNameForQuestion(uint8 _questionId) public onlyValidQuestionIds(_questionId) view returns (string memory) {\n        return questions[_questionId].creatorsName;\n    }\n\n    function getCreatorsOrganisationForQuestion(uint8 _questionId) public onlyValidQuestionIds(_questionId) view returns (string memory) {\n        return questions[_questionId].creatorsOrganisation;\n    }\n\n}\n",
  "sourcePath": "/Users/Stent/Documents/Hacks/ETHIndia2.nosync/PoapPolling/contracts/Poll.sol",
  "compiler": {
    "name": "solc",
    "version": "0.5.8+commit.23d335f2.Emscripten.clang"
  },
  "schemaVersion": "3.0.11",
  "updatedAt": "2019-08-04T00:25:03.156Z",
  "devdoc": {
    "methods": {
      "transferOwnership(address)": {
        "details": "Allows the current owner to transfer control of the contract to a newOwner.",
        "params": {
          "newOwner": "The address to transfer ownership to."
        }
      }
    }
  },
  "userdoc": {
    "methods": {}
  }
}